:020000040800F2
:10000000000002202102000881020008810200088D
:10001000810200088102000881020008000000003F
:100020000000000000000000000000008102000845
:10003000810200080000000081020008810200081F
:100040008102000881020008810200088102000884
:100050008102000881020008810200088102000874
:100060008102000881020008810200088102000864
:100070008102000881020008810200088102000854
:100080008102000881020008810200088102000844
:100090008102000881020008810200088102000834
:1000A0008102000881020008810200088102000824
:1000B0008102000881020008810200088102000814
:1000C0008102000881020008810200088102000804
:1000D00081020008810200088102000881020008F4
:1000E00081020008810200088102000881020008E4
:1000F00081020008810200088102000881020008D4
:1001000081020008810200088102000881020008C3
:1001100081020008810200088102000881020008B3
:1001200081020008810200088102000881020008A3
:100130008102000881020008810200088102000893
:100140008102000881020008810200088102000883
:100150008102000881020008810200088102000873
:100160008102000881020008810200088102000863
:1001700081020008810200088102000800000000DE
:08018000810200088102000861
:1001880080B483B000AF1C4B1B6B1B4A43F00103C8
:1001980013631A4B1B68194A43F420131360174B57
:1001A8005B6A164A43F4EE635362134B5B6C124A64
:1001B80043F010035364124B40F283629A60104B71
:1001C800DB680F4A43F4005343F00803D36000236D
:1001D800FB8002E0FB880133FB80FB8847F22F524B
:1001E8009342F7D9064B1B6803F08003002BEED02F
:1001F800034B41225A60EAE70038024000000240FF
:1002080000100140840200080000002000000020C7
:100218000000002000000020DFF840D0002103E0AB
:100228000F4B5B58435004310E480F4B42189A420B
:10023800F6D30E4A02E0002342F8043B0C4B9A42E4
:10024800F9D3DFF83000016841F470010160BFF3B1
:100258004F8FBFF36F8FFFF793FF704700000220A7
:100268008402000800000020000000200000002098
:0C0278000000002088ED00E0FEE7000020
:0400000508000221CC
:00000001FF
